:020000040800F2
:10000000A804002045010008AD200008AF2000082A
:10001000B3200008B7200008BB2000080000000043
:10002000000000000000000000000000BF200008E9
:10003000C120000800000000C3200008C5200008FF
:100040005F0100085F0100085F0100085F01000810
:100050005F0100085F0100085F0100085F01000800
:100060005F0100085F0100085F0100085F010008F0
:100070005F0100085F0100085F0100085F010008E0
:100080005F0100085F0100085F0100085F010008D0
:100090005F0100085F0100085F0100085F010008C0
:1000A0005F0100080F2100085F0100085F010008E0
:1000B0002F2100085F0100085F0100085F010008B0
:1000C0005F0100085F0100085F0100085F01000890
:1000D0005F010008CD2000085F0100085F010008F3
:1000E0005F0100085F0100085F0100085F01000870
:1000F0005F0100085F0100085F0100085F01000860
:100100005F0100085F0100085F0100085F0100084F
:100110005F0100085F0100085F0100085F0100083F
:100120005F0100085F0100085F0100085F0100082F
:10013000DFF80CD003F040FB004800479D1F00088B
:10014000A80400200648804706480047FEE7FEE76F
:10015000FEE7FEE7FEE7FEE7FEE7FEE7FEE7FEE777
:1001600047020008310100080CB500200190009002
:100170006C48006840F480306A49086000BF6948F4
:10018000006800F4003000900198401C0190009835
:1001900018B90198B0F5A06FF1D16248006800F479
:1001A000003010B10120009001E000200090009884
:1001B000012843D15C48006840F010005A490860AB
:1001C0000846006820F0030008600846006840F018
:1001D0000200086053484068524948600846406839
:1001E00048600846406840F48060486008464068BF
:1001F00020F47C1048600846406840F4E8104860ED
:100200000846006840F08070086000BF45480068FC
:1002100000F000700028F9D04248406820F0030048
:10022000404948600846406840F00200486000BF0E
:100230003C48406800F00C000828F9D10CBD10B50E
:10024000FFF792FF10BD10B53648006840F001007E
:1002500034490860084640683449084031494860DC
:1002600008460068324908402E4908600846006880
:1002700020F4802008600846406820F4FE004860B2
:100280004FF41F008860FFF7DAFF4FF00060294944
:10029000086010BD10B5002100200022214B5B68D2
:1002A00003F00C0121B1042906D0082928D107E068
:1002B000214B224C236027E01F4B204C236023E07E
:1002C000184B5B6803F47010164B5B6803F48032C4
:1002D000022303EB904022B9194B4343174C236090
:1002E0000DE0104B5B6803F4003323B1144B434320
:1002F000124C236003E0104B4343104C236003E097
:100300000D4B0E4C236000BF00BF064B5B68C3F370
:1003100003130C4CE15C094B1B68CB40074C23607A
:1003200010BD000000100240002002400000FFF855
:10033000FFFFF6FE08ED00E000127A00000000204A
:1003400000093D000400002031490143314A116099
:10035000704770B5002100230F22C47804B32D4CE0
:10036000246804F4E064C4F5E064210AC1F10403E4
:10037000CA40447804FA03F1847814402143090107
:10038000254C0678A155047804F01F050124AC40E3
:1003900005786D11AD0005F1E025C5F8004109E0D3
:1003A000047804F01F050124AC401C4D067876113A
:1003B00045F8264070BD1A4A0A400243154B1B1FE0
:1003C0001A60704739B1134A121D12680243114B6B
:1003D0001B1D1A6006E00F4A121D126882430D4B66
:1003E0001B1D1A607047042808D14FF0E0210969ED
:1003F00041F004014FF0E022116107E04FF0E021ED
:10040000096921F004014FF0E022116170470000FA
:100410000000FA050CED00E000E400E080E100E0FF
:1004200080FFFF1F01684FF6FE721140016000213E
:10043000016041608160C1608D49884208D18C496A
:100440000839496841F00F01894A083A51608AE049
:1004500087491431884208D185490839496841F0F3
:10046000F001834A083A51607DE081492831884291
:1004700008D17F490839496841F470617C4A083ADB
:10048000516070E07A493C31884208D17849083996
:10049000496841F47041764A083A516063E0744912
:1004A0005031884208D172490839496841F47021B5
:1004B0006F4A083A516056E06D496431884208D16C
:1004C0006B490839496841F47001694A083A51603A
:1004D00049E067497831884208D165490839496857
:1004E00041F07061624A083A51603CE061498842DB
:1004F00006D1011F096841F00F01021F116032E0AF
:100500005C491431884208D15A49091F096841F0F1
:10051000F001584A121F116025E0564928318842DF
:1005200008D15449091F096841F47061514A121FEA
:10053000116018E04F493C31884208D14D49091FEC
:10054000096841F470414B4A121F11600BE04949A0
:100550005031884207D14749091F096841F4702189
:10056000444A121F1160704710B50022026847F616
:10057000F0739A430C6A8B6823430C6923434C69DC
:1005800023438C692343CC6923434C6A23438C6AFD
:1005900023431A430260CB6843600B6883604B6857
:1005A000C36010BD0021016041608160C1600161D4
:1005B00041618161C161016241628162704721B123
:1005C000026842F00102026004E002684FF6FE7326
:1005D0001A40026070471AB103680B43036002E0DF
:1005E00003688B4303607047416070470146486869
:1005F00080B2704701460020002201F080531BB1F9
:100600001C4B083B1A6802E0194B083B1A6802EAC7
:1006100001030BB1012000E00020704700F0805181
:1006200019B11449091F086002E0114908394860EE
:10063000704701460020002201F080531BB10D4B92
:10064000083B1A6802E00A4B083B1A6802EA0103F9
:100650000BB1012000E00020704700F0805119B17B
:100660000449091F086002E00149083948607047E1
:10067000080002400804024010B50446CC488442F9
:1006800008D10121042000F02DFB0021042000F0FE
:1006900029FB46E0C748844208D10121082000F028
:1006A00021FB0021082000F01DFB3AE0C2488442F3
:1006B00008D10121102000F015FB0021102000F0CE
:1006C00011FB2EE0BD48844208D10121202000F01A
:1006D00009FB0021202000F005FB22E0B8488442FD
:1006E00008D10121402000F0FDFA0021402000F057
:1006F000F9FA16E0B348844208D10121802000F0C5
:10070000F1FA0021802000F0EDFA0AE0AE488442C0
:1007100007D10121801500F0E5FA0021A01500F0B5
:10072000E1FA10BD10B50121084600F0DBFA002106
:10073000012000F0D7FA10BD2DE9F0410246002556
:100740000026002000230024002791F803C00CF0AD
:100750000F0591F803C00CF0100CBCF1000F03D092
:1007600091F802C04CEA050591F800C0BCF1000FF9
:1007700031D0146800202BE04FF0010C0CFA00F38C
:10078000B1F800C00CEA03069E4220D183004FF06E
:100790000F0C0CFA03F7BC4305FA03FC4CEA040403
:1007A00091F803C0BCF1280F06D14FF0010C0CFAF0
:1007B00000FCC2F814C00AE091F803C0BCF1480F75
:1007C00005D14FF0010C0CFA00FCC2F810C0401C1F
:1007D0000828D1D31460B1F800C0BCF1FF0F34DD9C
:1007E000546800202EE000F1080C4FF0010808FAD0
:1007F0000CF3B1F800C00CEA03069E4221D183003D
:100800004FF00F0C0CFA03F7BC4305FA03FC4CEA5B
:10081000040491F803C0BCF1280F05D100F1080CC5
:1008200008FA0CF8C2F8148091F803C0BCF1480F24
:1008300007D100F1080C4FF0010808FA0CF8C2F8D3
:100840001080401C0828CED35460BDE8F0814FF6DC
:10085000FF710180022181700421C170704702463E
:10086000002093680B400BB1012000E0002070478E
:100870000146886880B2704702460020D3680B406A
:100880000BB1012000E0002070470146C86880B22B
:10089000704701617047416170470AB1016100E032
:1008A00041617047C16070474FF480320A438261F2
:1008B0008161826182698269704702460020434BF0
:1008C00018684FF68073184040EA021008433F4B07
:1008D000186070473E49C8617047F0B50A4600236A
:1008E00000240021002500F00046B6F1004F02D19F
:1008F000364EF16901E0354E7168C0F3034583B2AD
:1009000000F44016B6F5401F08D121F070612F4E5B
:10091000766826F070662D4F7E6012E000F4801637
:10092000B6F5801F06D1032606FA05F4A14341F06F
:10093000706106E0460D360103FA06F6B14341F058
:10094000706122B1460D360103FA06F6314300F01C
:100950000046B6F1004F02D11C4EF16101E01B4E82
:100960007160F0BD30B500228B071C0F0F2303FA16
:1009700004F2164B08338C1053F824309343134C75
:1009800008348D1044F8253023468C1053F8243059
:100990008C07240F00FA04F423430C4C08348D1008
:1009A00044F8253030BD0A49DC310860704700004A
:1009B00000080140000C01400010014000140140FB
:1009C00000180140001C01400020014000000140CF
:1009D00000002042DF48006840F00100DD49086067
:1009E00008464068DC490840DA4948600846006823
:1009F000DA490840D74908600846006820F480209A
:100A000008600846406820F4FE0048604FF41F006C
:100A100088607047CF49096821F48031CD4A116060
:100A20001146096821F480211160B0F5803F03D0A0
:100A3000B0F5802F0ED106E0C649096841F4803137
:100A4000C44A116007E0C349096841F4A021C14AC2
:100A5000116000E000BF00BF704710B501460022E2
:100A6000002300204A11012A02D1BA4C236806E073
:100A7000022A02D1B74C236A01E0B64C636A01F046
:100A80001F02012494401C400CB1012000E0002012
:100A900010BD38B5002000900024002500BF312093
:100AA000FFF7DBFF05460098401C00900098B0F56A
:100AB000A06F01D0002DF2D03120FFF7CEFF08B19A
:100AC000012400E00024204638BD01460020A14A50
:100AD000106820F0F80040EAC10010607047A0499B
:100AE00008607047024600209A4B586820F47C103A
:100AF00042EA01031843974B5860704798490866CB
:100B0000704701460020934A506820F003000843D4
:100B1000506070478F48406800F00C0070470146F5
:100B200000208C4A506820F0F00008435060704765
:100B300001460020874A506820F4E0600843506076
:100B4000704701460020834A506820F4605040EA14
:100B5000C1005060704729B17E4A527A02437D4BF2
:100B60005A7204E07B4A527A82437A4B5A72704737
:100B70007B49D8310860704701460020754A5068AB
:100B800020F440400843506070470021714A2032F1
:100B90001170704A82F82010012802D004280AD16E
:100BA00004E001216B4A2032117005E00521694AF9
:100BB0002032117000E000BF00BF70476949086033
:100BC00070476449096A0143624A11627047654986
:100BD00044390860704730B500210022002400230A
:100BE0005C4D6D6805F00C0121B1042905D0082980
:100BF00023D105E05C4D056022E05B4D05601FE000
:100C0000544D6D6805F47012524D6D6805F48034D2
:100C1000022505EB92421CB9544D554305600BE08B
:100C20004C4D6D6805F400351DB1504D55430560C0
:100C300002E04D4D5543056002E04B4D056000BF9D
:100C400000BF444D6D6805F0F0010909484D6B5C2B
:100C50000568DD4045603F4D6D6805F4E061090AB7
:100C6000434D6B5C4568DD4085603A4D6D6805F429
:100C70006051C90A3E4D6B5C4568DD40C560354D2D
:100C80006D6805F44041890B3A4D6B5CC568B5FB56
:100C9000F3F5056130BD29B12E4A526902432D4B4F
:100CA0005A6104E02B4A526982432A4B5A617047C9
:100CB00029B1284A92690243264B9A6104E0254AE9
:100CC00092698243234B9A61704729B1214AD269C4
:100CD0000243204BDA6104E01E4AD26982431D4B75
:100CE000DA61704729B11B4AD2680243194BDA60B6
:100CF00004E0184AD2688243164BDA60704729B183
:100D0000144A12690243134B1A6104E0114A126932
:100D10008243104B1A61704712494039086070478E
:100D20000F49C86470470B49C87170470948406A49
:100D300040F0807007494862704701460020054A2C
:100D400092680A400AB1012000E000207047014982
:100D500088727047001002400000FFF8FFFFF6FEA7
:100D6000000042428004424200127A0000093D0025
:100D7000140000202400002010B50446FE488442E0
:100D800008D10121C014FFF7ADFF0021E014FFF7E7
:100D9000A9FFC4E0B4F1804F08D101210846FFF754
:100DA000AEFF00210120FFF7AAFFB8E0F34884421C
:100DB00008D101210220FFF7A2FF00210220FFF746
:100DC0009EFFACE0EE48844208D101210420FFF7E9
:100DD00096FF00210420FFF792FFA0E0E94884423B
:100DE00008D101210820FFF78AFF00210820FFF722
:100DF00086FF94E0E448844208D101211020FFF7E7
:100E00007EFF00211020FFF77AFF88E0DF48844250
:100E100008D101212020FFF772FF00212020FFF7D9
:100E20006EFF7CE0DA48844208D101214014FFF7CC
:100E300059FF00216014FFF755FF70E0D548844248
:100E400009D10121C804FFF74DFF00214FF4002014
:100E5000FFF748FF63E0D048844209D1012108052B
:100E6000FFF740FF00214FF48010FFF73BFF56E0F3
:100E7000CA48844209D101214805FFF733FF002108
:100E80004FF40010FFF72EFF49E0C548844208D117
:100E900001214020FFF733FF00214020FFF72FFF03
:100EA0003DE0C048844208D101218020FFF727FFA0
:100EB00000218020FFF723FF31E0BB48844208D1A6
:100EC00001218015FFF71BFF0021A015FFF717FF79
:100ED00025E0B648844209D101210804FFF702FF4A
:100EE00000214FF48030FFF7FDFE18E0B048844247
:100EF00009D101214804FFF7F5FE00214FF400302D
:100F0000FFF7F0FE0BE0AB48844208D101218804D2
:100F1000FFF7E8FE00214FF48020FFF7E3FE10BD4D
:100F200000220288944B98420ED0994B98420BD0E5
:100F3000B0F1804F08D0914B984205D0904B984229
:100F400002D0904B984204D14FF68F731A404B88D1
:100F50001A438D4B984207D08C4B984204D04FF6E1
:100F6000FF431A40CB881A4302808B8883850B8805
:100F70000385814B98420BD0854B984208D08B4B10
:100F8000984205D08A4B984202D08A4B984201D1B0
:100F90000B7A038601238382704770B500240022F8
:100FA0000023058C4FF6FE7635400584028C83883D
:100FB000048B4FF68F752C40B51E2C400D882C43AA
:100FC000751E2A400D892A434D882A436A4DA8423E
:100FD0000BD06F4DA84208D0744DA84205D0744D77
:100FE000A84202D0734DA84213D14FF6F7752A409C
:100FF0004D892A434FF6FB752A408D882A434FF6C8
:10100000FF652B404FF6FF552B408D892B43CD8933
:101010002B4383800483CD888586028470BD70B5A0
:10102000002400220023058C4FF6EF76354005841E
:10103000028C8388048B48F6FF752C404FF6FF45E1
:101040002C400D884FF6FF7606EA05252C434FF617
:10105000DF752A400D8906EA05152A434D8806EA00
:1010600005152A43444DA84202D0494DA8421DD13E
:101070004FF67F752A404D894FF6FF7606EA051533
:101080002A434FF6BF752A408D8806EA05152A4384
:101090004FF6FF352B404FF2FF752B408D8906EA46
:1010A00085052B43CD8906EA85052B438380048380
:1010B000CD880587028470BD70B50024002200230E
:1010C000058C4FF6FF6635400584028C8388848B3F
:1010D0004FF68F752C404FF6FC752C400D882C4335
:1010E0004FF6FF552A400D894FF6FF7606EA052593
:1010F0002A434D8806EA05252A431F4DA84202D0FF
:10110000234DA8421DD14FF2FF752A404D894FF65D
:10111000FF7606EA05252A434FF6FF352A408D88DB
:1011200006EA05252A434EF6FF752B404DF6FF755E
:101130002B408D8906EA05152B43CD8906EA051556
:101140002B4383808483CD888587028470BD70B5EE
:10115000002200230024058C4EF6FF7635400584DE
:10116000038C8488828B48F6FF752A404FF6FF4532
:101170002A400D8820E00000002C014000040040BF
:1011800000080040000C0040001000400014004027
:1011900000340140004C0140005001400054014027
:1011A00000180040001C00400020004000400140AA
:1011B00000440140004801404FF6FF7606EA05254D
:1011C0002A434DF6FF752B400D8906EA05352B4362
:1011D0004D8806EA05352B43FA4DA84202D0FA4D58
:1011E000A84208D14BF6FF752C408D894FF6FF764B
:1011F00006EA85152C4384808283CD88A0F8405070
:10120000038470BD828B4FF2FF331A408283828B3E
:101210004FF6FF7303EA01231A4382837047F0B548
:101220000C461546002200210026078C4EF6FF7C56
:1012300007EA0C070784828B018C4FF6FF7707EAD9
:10124000043640F6FF473A404FF6FF7707EA052796
:101250003A434FF6FF7707EA03373A43D94FB8428C
:101260000ED0D94FB8420BD0B0F1804F08D0D74F35
:10127000B84205D0D64FB84202D0D64FB84206D1B8
:101280004DF6FF77394046F48057394305E047F67D
:10129000FF57394044F48057394382830184F0BDBD
:1012A000828B4FF6F3731A408283828B0A438283C8
:1012B0007047F0B50C461546002200210026078C29
:1012C0004FF6FF6C07EA0C070784828B018C4FF600
:1012D000FF7707EA04264FF60C773A404FF6FF7780
:1012E00007EA03172F433A43B64FB8420ED0B64F22
:1012F000B8420BD0B0F1804F08D0B44FB84205D0FF
:10130000B34FB84202D0B34FB84206D14FF6FF57A1
:10131000394046F48077394305E04FF2FF573940B2
:1013200044F48077394382830184F0BD028B4FF20D
:10133000FF331A400283028B4FF6FF7303EA012347
:101340001A4302837047F0B50C461546002200216F
:101350000026078C4FF6EF7C07EA0C070784028B08
:10136000018C4FF6FF7707EA041640F6FF473A4034
:101370004FF6FF7707EA03373A434FF6FF7707EA5E
:1013800005273A438F4FB8420ED08F4FB8420BD04B
:10139000B0F1804F08D08D4FB84205D08C4FB84285
:1013A00002D08C4FB84206D14FF6DF77394046F075
:1013B0001007394305E04FF65F77394044F01007D6
:1013C000394302830184F0BD028B4FF6F3731A4058
:1013D0000283028B0A4302837047F0B50C46154620
:1013E00000220021068C4FF6FE773E400684028BD9
:1013F000018C4FF60C7632407E1C06EA03162E4313
:101400003243704EB0420ED06F4EB0420BD0B0F1AE
:10141000804F08D06D4EB04205D06D4EB04202D024
:101420006C4EB04206D14FF6FD76314044F00106D5
:10143000314305E04FF6F576314044F00106314383
:1014400002830184F0BD70B505460C465D488542B7
:101450000ED05D4885420BD0B5F1804F08D05B4877
:10146000854205D05A48854202D05A48854200D16B
:1014700000E000BF208850B92389A28861882846EF
:10148000FFF7ABFFE1882846FFF79EFF25E02088A5
:1014900004280AD12389A28861882846FFF753FFD0
:1014A000E1882846FFF742FF17E0208808280AD184
:1014B0002389A28861882846FFF7FBFEE188284639
:1014C000FFF7EEFE09E02389A28861882846FFF72E
:1014D000A6FEE1882846FFF795FE70BD2DE9F04194
:1014E00005460C4600260127608808B9022600E060
:1014F0000026A088012801D1022700E001272088CA
:10150000A0B92389A28861882846FFF766FFE18891
:101510002846FFF759FF23893A4631462846FFF708
:1015200012FFE1882846FFF701FF13E02389A28814
:1015300061882846FFF707FFE1882846FFF7F6FE97
:1015400023893A4631462846FFF747FFE188284677
:10155000FFF73AFFBDE8F0810A884B881A438B8871
:101560001A43CB881A430B891A434B891A438B8938
:101570001A43A0F8442070474FF6FF718180002184
:101580000180C1804180017270470021018041804B
:101590008180C180018141818181C18170470021A9
:1015A00001804180012181800021C180018170473B
:1015B0000021018041808180C18001814181818140
:1015C00070470000002C014000340140000400403E
:1015D00000080040000C004021B1028842F00102E6
:1015E000028004E002884FF6FE731A4002807047C2
:1015F00031B1B0F8442042F40042A0F8442005E0A4
:10160000B0F84420C2F30E02A0F8442070471AB18B
:1016100083890B43838102E083898B4383817047F5
:101620008182704741EA0203A0F8483070471AB13E
:1016300083890B43838102E083898B4383817047D5
:1016400001894FF6F8721140018170470A46002166
:1016500001894FF68F73194011430181704730B5EE
:1016600004460D4629462046FFF7F0FF208940F04A
:101670000700208130BD2DE9F04104460D46164695
:101680001F46602D06D13B46012231462046FFF71A
:101690005AFE05E03B46012231462046FFF79DFEFB
:1016A00029462046FFF7D2FF208940F0070020811D
:1016B000BDE8F08130B50C4600210189C9B24FF672
:1016C000FF7505EA0325154325432943018130BDF4
:1016D0002DE9F04105460E4617469846002443463C
:1016E0003A4631462846FFF7E5FF2C894FF6F87059
:1016F000044044F007044FF68F70044044F0700437
:101700002C81BDE8F081F0B504460D4616461F4613
:101710003B46324629462046FFF7CCFF208940F45D
:1017200080402081F0BD0185828270470A460021F9
:1017300001884FF68F731940114301807047F0B54F
:101740000C4615461E460021002200230189028B0B
:10175000038C4FF6F877394021434FF6FC473A4067
:1017600040F201173A434FF6DD773B404FF6FF77E3
:1017700007EA06172F433B43018102830384F0BD30
:101780000A460021018B4FF68F73194011430183E4
:1017900070470A460021018B48F6FF7319404FF647
:1017A000FF7303EA02231943018370470A460021AD
:1017B000818B4FF68F7319401143818370470A461E
:1017C0000021818B48F6FF7319404FF6FF7303EA3F
:1017D000022319438183704721B1028842F08002BD
:1017E000028004E002884FF67F731A40028070473F
:1017F00021B1828842F00402828004E082884FF6A0
:10180000FB731A408280704721B1828842F008023F
:10181000828004E082884FF6F7731A408280704716
:1018200021B1828842F00102828004E082884FF672
:10183000FE731A40828070470A460021018B4FF6E2
:10184000F77319401143018370470A460021018B49
:101850004FF2FF7319404FF6FF7303EA0223194357
:10186000018370470A460021818B4FF6F7731940B8
:101870001143818370470A460021818B4FF2FF7329
:1018800019404FF6FF7303EA02231943818370471F
:101890000A460021018B4FF6FB7319401143018367
:1018A00070470A460021018B4FF6FF3319404FF66F
:1018B000FF7303EA02231943018370470A4600219C
:1018C000818B4FF6FB7319401143818370470A46A1
:1018D0000021818B4FF6FF3319404FF6FF7303EA67
:1018E00002231943818370470A460021018B4FF67A
:1018F0007F7319401143018370470A460021018B11
:10190000C1F30E014FF6FF7303EA0223194301836B
:1019100070470A460021818B4FF67F7319401143AF
:10192000818370470A460021818BC1F30E014FF677
:10193000FF7303EA02231943818370470A4600219B
:10194000018C4FF6FD7319401143018470470A461C
:101950000021018C4FF6F773194011430184704741
:101960000A460021018C4FF6DF7319404FF6FF73D2
:1019700003EA02131943018470470A460021018CCF
:101980004FF67F7319404FF6FF7303EA02131943B2
:10199000018470470A460021018C4FF6FF5319401D
:1019A0004FF6FF7303EA02231943018470470A4686
:1019B0000021018C4FF2FF7319404FF6FF7303EAC9
:1019C00002231943018470470A460021018C4DF619
:1019D000FF7319404FF6FF7303EA02331943018482
:1019E000704730B5002301248C40A3B2048C9C4383
:1019F0000484048C02FA01F5ADB22C43048430BD9A
:101A000030B5002304248C40A3B2048C9C4304848E
:101A1000048C02FA01F5ADB22C43048430BD70B5DC
:101A20000346002000241846183001258D40ACB232
:101A30001D8CA5431D8409B1082909D100EB610063
:101A4000056825F0700505600568154305600EE022
:101A50000D1FC5F34E052844056825F4E0450560D3
:101A600005684FF6FF7606EA02263543056070BD2D
:101A700021B1028842F00202028004E002884FF69F
:101A8000FD731A400280704721B1028842F00402BF
:101A9000028004E002884FF6FB731A400280704710
:101AA00021B1828842F08002828004E082884FF671
:101AB0007F731A408280704702884FF6F7731A408E
:101AC000028002880A430280704782884FF68F7333
:101AD0001A40828082880A438280704702894FF6CA
:101AE000F8731A40028102890A4302817047028911
:101AF0004FF67F731A40028102890A4302817047C0
:101B0000818470478185704781867047018770475F
:101B100081877047A0F84010704702884FF6FF4356
:101B20001A40028002880A43028070470146888E6C
:101B300070470146088F70470146888F70470146FD
:101B4000B1F8400070470146888C70470146088D07
:101B5000704702460020138A0B400BB1012000E0C1
:101B600000207047CA430282704730B50246002009
:101B700000230024158A05EA0103958905EA01047A
:101B800013B10CB1012000E0002030BDCA43028235
:101B90007047000010B50446FB48844209D101217A
:101BA0008803FFF79FF800214FF48040FFF79AF871
:101BB00032E0F648844209D101214804FFF79FF83A
:101BC00000214FF40030FFF79AF825E0F0488442F6
:101BD00009D101218804FFF792F800214FF48020F9
:101BE000FFF78DF818E0EB48844209D10121C804C1
:101BF000FFF785F800214FF40020FFF780F80BE095
:101C0000E548844208D101210805FFF778F8002152
:101C10004FF48010FFF773F810BD2DE9F04786B040
:101C200005460E460024A24600BFA1460027B08903
:101C300000B100BF2F462C8A4CF6FF700440F0889C
:101C400004432C82AC894EF6F3100440B0883189ED
:101C50000843718908430443AC81AC8A4FF6FF40C6
:101C60000440B0890443AC8201A8FEF7B4FFC64823
:101C7000874202D1DDF810A001E0DDF80CA0A889B0
:101C800000F4004040B10AEBCA0000EB0A103168D2
:101C90004900B0FBF1F807E00AEBCA0000EB0A10BC
:101CA00031688900B0FBF1F86420B8FBF0F0040162
:101CB0002009642101FB1089A88900F4004040B18B
:101CC000322000EBC900B0FBF1F000F00700044344
:101CD00008E0322000EB09106421B0FBF1F000F0C5
:101CE0000F0004432C8106B0BDE8F0874FF4165175
:101CF000016000218180C18001810C21418100218E
:101D00008181704710B502460020108A4FF2FF0310
:101D100018400B884C8823438C882343CC8823436A
:101D20001843108210BD0021018041808180C18054
:101D3000704721B1828942F40052828104E0828995
:101D40004DF6FF731A4082817047F0B503460024B8
:101D500000260025002040F66A17B94200D100BFD6
:101D60001846C1F3421401F01F06012707FA06F5D1
:101D7000012C01D10C3004E0022C01D1103000E024
:101D800014301AB107682F43076002E00768AF43B9
:101D90000760F0BD1AB1838A0B43838202E0838A15
:101DA0008B4383827047028A4FF6F0731A40028297
:101DB000028A0A430282704782894FF2FF731A40F7
:101DC000828182890A438281704721B1828942F0EF
:101DD0000202828104E082894FF6FD731A408281FB
:101DE0007047028A4FF6DF731A400282028A0A4362
:101DF0000282704721B1028A42F48042028204E0EA
:101E0000028A4BF6FF731A4002827047C1F3080240
:101E10008280704701468888C0F308007047818936
:101E200041F0010181817047028BD2B20283028BA3
:101E300042EA012202837047028B02F47F4202834E
:101E4000028B0A430283704721B1828A42F020024A
:101E5000828204E0828A4FF6DF731A4082827047E2
:101E600021B1828A42F01002828204E0828A4FF617
:101E7000EF731A408282704721B1828A42F00802D1
:101E8000828204E0828A4FF6F7731A40828270479A
:101E900021B1828942F40042828103E08289C2F347
:101EA0000E028281704721B1828A42F400628282EE
:101EB00004E0828A4FF2FF731A4082827047828A5E
:101EC0004FF6FB731A408282828A0A4382827047ED
:101ED00021B1828A42F00202828204E0828A4FF6B5
:101EE000FD731A408282704702460020B1F5007FE0
:101EF00000D100BF13880B400BB1012000E000208F
:101F0000704701F40072B2F5007F00D100BFCA43F0
:101F10000280704770B5024600240023002500208F
:101F200040F66A16B14200D100BFC1F3421501F07C
:101F30001F03012606FA03F3012D02D196893340CF
:101F400006E0022D02D1168A334001E0968A334022
:101F50000C12012606FA04F41688344013B10CB1B1
:101F6000012000E0002070BD10B50022002340F6E3
:101F70006A14A14200D100BF0A1201249440A3B206
:101F8000DC43048010BD00000038014000440040E4
:101F900000480040004C00400050004086B0002047
:101FA00004900590029003900024002500260190E3
:101FB000009001210846FEF77BFE01213748FEF71D
:101FC0008CFC00F0BDFA00F0E2F800F0CFF932210D
:101FD000334800F069FA3221314800F03DFA00F050
:101FE000A7FF01F0B0F84FF47A7000F0D5FF64203D
:101FF00001F0E9F851E02A4890F8310001284CD16D
:102000000020274981F8310002AA04A9244800F0E1
:10201000DFFB0446204600F020FEFF2820D1049874
:1020200050B9059840B90298049003980590022190
:102030001C48FEF72EFC13E0029D039E00221A4B63
:102040000299049800F0FFFC01900022164B0399BE
:10205000059800F03EFD009002211248FEF71BFC9F
:10206000019840B9009830B9002000F06BFF0020C3
:1020700001F073F811E0694601A800F078FA002237
:10208000094B2846019900F03AFD04900022064BC6
:102090003046009900F0BFFD0590ACE70004300029
:1020A0003C0000200008014000001040704700BFC5
:1020B000FEE700BFFEE700BFFEE700BFFEE7704798
:1020C0007047704710B500F070F910BD10B540F2C0
:1020D00024411F48FFF71EFFC0B11D4800881D495D
:1020E00081F831001A48001D008881F83100012074
:1020F00081F8310000211848FEF761FA32211648B4
:10210000FEF772FA01211448FEF759FA10BD10B516
:1021100001211248FFF729FD40B111480068401C19
:102120000F49086001210D48FFF730FD10BD10B5C3
:1021300001218807FFF719FD40B10A480068401CDB
:102140000849086001218807FFF720FD10BD000045
:10215000003801403C00002058000240002C0140A3
:10216000280000202C00002008B54FF4A060FEF7E6
:10217000EBF825208DF8000001208DF801008DF886
:1021800002008DF803006846FEF7E3F808BD00B5CD
:1021900085B001210420FEF78BFD01218803FEF7A5
:1021A00087FD4FF40070ADF8100018208DF8130073
:1021B00003208DF8120004A95748FEF7BDFA4FF42A
:1021C0008060ADF8100004208DF8130004A9524877
:1021D000FEF7B2FA4FF4165000900020ADF804005C
:1021E000ADF80600ADF80800ADF80C000C20ADF815
:1021F0000A0069464948FFF710FDFFF7B5FF0122C5
:1022000040F224414548FFF7A0FD01224021434808
:10221000FFF7C0FD012280214048FFF7BBFD0121EF
:102220003E48FFF786FD05B000BD70B504460D467B
:1022300029462046FFF7EAFD00BF80212046FFF730
:1022400053FE0028F9D070BD2DE9F04107460D4638
:102250001646002405E0295D3846FFF7E6FF601CBE
:10226000C4B2B442F7DB00BF40213846FFF73CFE62
:102270000028F9D0BDE8F08170B506460C4600256F
:1022800000BF615D3046FFF7D0FF6D1C605D002828
:10229000F7D100BF40213046FFF726FE0028F9D0D5
:1022A00070BD2DE9F04105460C46260AE7B23146DD
:1022B0002846FFF7ABFD00BF80212846FFF714FE3C
:1022C0000028F9D039462846FFF7A0FD00BF80213D
:1022D0002846FFF709FE0028F9D0BDE8F08170B567
:1022E00004460D46E1B20D48FFF790FD00BF802186
:1022F0000A48FFF7F9FD0028F9D0204670BD10B557
:10230000044600BF20210548FFF7EEFD0028F9D064
:102310000248FFF77FFD10BD000801400038014072
:1023200030B50146B1F1807F01D3012030BD21F0ED
:102330007F40401E4FF0E022506150170F220028CE
:1023400007DA13071D0E3E4B00F00F04241F1D5526
:1023500003E013071C0E3B4B1C5400BF00204FF042
:10236000E0229061072010610020DFE710B53648B9
:1023700000683649B0FBF1F42046FFF7D1FF08B101
:1023800000BFFEE710BD01B53149009808604FF06D
:10239000E020006940F001004FF0E021086100BF3B
:1023A0002B4800680028FBD108BD2948006820B1EF
:1023B00027480068401E26490860704731B522480A
:1023C00000682449B0FBF1F52846FFF7A9FF002477
:1023D00008E000BF4FF0E020006900F480300028E2
:1023E000F8D0641C00988442F3D34FF0E0200069D9
:1023F00020F001004FF0E021086138BD31B51248EE
:1024000000684FF47A71B0FBF1F52846FFF788FFBA
:10241000002408E000BF4FF0E020006900F48030A5
:102420000028F8D0641C00988442F3D34FF0E020D9
:10243000006920F001004FF0E021086138BD000084
:1024400018ED00E000E400E000000020A08601009C
:102450003000002040420F0070B505460C460121B7
:102460000846FEF718FC3348FDF7DCFF32483349D5
:10247000086008464560002088600846C460002067
:1024800008618020486100208861C86108624FF4BB
:1024900080504862002088622648FEF765F80121D6
:1024A0002448FEF78CF870BD70B505460C46012136
:1024B0000846FEF7F0FB1F481438FDF7B3FF1E482F
:1024C0001E49086008464560102088600846C460C0
:1024D000002008618020486100208861C86108628E
:1024E0004FF4805048620020886212481438FEF78A
:1024F0003BF801210F481438FEF761F870BD70B544
:1025000004460D460D48446001460A481438FEF75B
:102510002BF8002107481438FEF751F829460548E2
:102520001438FEF761F8012102481438FEF747F825
:1025300070BD0000580002400438014070000020C7
:1025400008B501210420FEF7B3FB0220ADF800001E
:1025500010208DF8030003208DF8020069462348FF
:10256000FEF7EAF802212148FEF795F908BD2DE9AA
:10257000F04104460D460A260A27012000F0E2FC3D
:10258000012000F0EAFD206810B9002000F0E5FD10
:10259000286810B9002000F0E0FD15480068B0423E
:1025A0000EDD0120124908602068002802DD206845
:1025B000401E20602068002802DA2068401C20604D
:1025C0000C480068B8420EDD01200A4908602868FE
:1025D000002802DD2868401E28602868002802DAEA
:1025E0002868401C2860BDE8F08100000008014018
:1025F000280000202C00002010B501464A78303A0F
:1026000048F6A0435A438B78303BC3EB4314C4EBEA
:10261000032302EB0313CA78303AC2EB021202EB37
:10262000820203EBC2030A79303AC2EB021203EBD7
:1026300082034A79303A02EB820203EB42028B7941
:102640001A44A2F130000A782B2A01D1F74A10442B
:102650000A782D2A01D1F54A101A10BD10B501468D
:102660000A78303AF24B53434A78303A40F62F54C6
:10267000624303EB02138A78303A40F265446243C6
:1026800003EBC203CA78303AC2EB4214C4EB022215
:1026900003EB82030A79303AC2EB021202EB8202A8
:1026A00003EB42034A79303AC2EB0212981810BD8C
:1026B00030B5DE4CA04203DB03461B1B2B240C7001
:1026C000DA4CA04203DA0346E31A2D240C704FF4CF
:1026D000616493FBF4F20A2492FBF4F430344C70FE
:1026E0000A2492FBF4F504FB152430348C703A2450
:1026F000CC704FF4616493FBF4F504FB15323C2479
:1027000092FBF4F20A2492FBF4F430340C710A24A4
:1027100092FBF4F504FB152430344C713A248C718F
:102720003C2493FBF4F504FB15320A2492FBF4F4E9
:102730003034CC710A2492FBF4F504FB15243034B8
:102740000C7223244C7230BD10B502464DF2F023BA
:1027500092FBF3F00A2390FBF3F330330B700A2360
:1027600090FBF3F403FB140330334B703A238B706C
:102770004DF2F02392FBF3F403FB14204FF461734A
:1027800090FBF3F00A2390FBF3F33033CB700A2372
:1027900090FBF3F403FB140330330B713A234B71BA
:1027A0004FF4617392FBF3F403FB14200F2390FBAF
:1027B000F3F00A2390FBF3F330338B710A2390FB81
:1027C000F3F403FB14033033CB7123230B7210BDDE
:1027D0002DE9F04188B006460F4615460024A04674
:1027E00007E0601CC4B22D2C03DD002008B0BDE85A
:1027F000F081305D3A28F4D14FF0000809E0305DF7
:1028000003A901F80800601CC4B208F1010000F03F
:10281000FF08B8F1130FF2DB3221304600F0EBFC79
:102820009DF80D00472819D19DF80E00522807D1B8
:1028300080493868FFF788FF09217E48FFF75FFE6F
:102840009DF80E00442807D17A497868FFF730FFD9
:102850000A217848FFF753FE0120C7E79DF80D00D5
:10286000512828D19DF81100722824D19DF8130019
:102870008DF800009DF814008DF801009DF81600F9
:102880008DF802009DF817008DF803009DF81900DF
:102890008DF804009DF81A008DF8050031208DF8A0
:1028A0000C00012103A8FFF72AFE6846FFF7D6FEB9
:1028B000286003209AE79DF80D00512817D19DF854
:1028C0000E00652801D1452090E79DF80E0077287D
:1028D00001D157208AE79DF80E00732801D15320BB
:1028E00084E79DF80E006E2801D14E207EE79DF80A
:1028F0000D00532828D19DF80E00722824D19DF890
:102900000F008DF800009DF810008DF801009DF873
:1029100012008DF802009DF813008DF803009DF859
:1029200015008DF804009DF816008DF80500312083
:102930008DF80C00012103A8FFF7E1FD6846FFF7C1
:102940008DFE2860032051E79DF80D0053284DD1DE
:102950009DF80E00642849D19DF80F0020281CD155
:102960009DF810008DF800009DF811008DF8010011
:102970009DF812008DF802009DF814008DF80300F8
:102980009DF815008DF804009DF817008DF80500DE
:102990009DF818008DF806001BE09DF80F008DF8DB
:1029A00000009DF810008DF801009DF811008DF8D1
:1029B00002009DF813008DF803009DF814008DF8B7
:1029C00004009DF816008DF805009DF817008DF89D
:1029D000060031208DF80C00012103A8FFF78FFDC0
:1029E0006846FFF709FE68600420FFE69DF80D00C9
:1029F0004D2826D19DF80E00532808D130208DF89F
:102A00000C00012103A8FFF77AFD0120EEE69DF8F6
:102A10000E00652800D1E9E69DF80E00772800D168
:102A2000E4E69DF80E00732806D1DFE6A0F104006D
:102A3000603D08009C0000209DF80E006E2800D12B
:102A4000D4E60020D2E62DE9FC4704468946154627
:102A50001E46A4EB0900002801DB014600E04142CC
:102A6000C34A914225DD4C4511DD51004944081B04
:102A700000F054FD2A463346CDE9000100F0DFFCAA
:102A8000074600F05CFD82465046BDE8FC87B94928
:102A9000A9EB0101081B00F041FD07462A46334619
:102AA00000F0CDFCCDE9000100F049FD8246504622
:102AB000EBE7A9EB040000F031FD2A463346CDE9EF
:102AC000000100F0BCFC074600F039FD824650468C
:102AD000DBE72DE9F84F82468B4614461D46ABEBEB
:102AE0000A0000F01BFD064622462B4600F0A7FC1C
:102AF000804600F024FD00900098BDE8F88F2DE995
:102B0000F04786B00646894614461D46484600F002
:102B100005FD22462B46CDE9000100F01EFC0746CC
:102B20008846304600F0FAFC3A464346CDE90201B9
:102B300000F00DFC00221346CDE9040100F038FD41
:102B400018D2484600F0EAFC22462B46CDE90001A7
:102B500000F003FCCDE902018648304400F0DEFCC1
:102B60000746DDE9022300F0F2FBCDE9040100F0A5
:102B7000E6FC8246484600F0D1FC22462B46CDE9D1
:102B8000000100F0EAFB07468846304600F0C6FC2C
:102B90003A464346CDE9020100F0D9FB0022764BCC
:102BA000CDE9040100F018FD19D2484600F0B6FC4A
:102BB000074622462B4600F0D0FBCDE902016D49C5
:102BC000701A00F0ABFCCDE90001DDE9022300F052
:102BD000BEFBCDE9040100F0B2FC824617E0484696
:102BE00000F09CFC074622462B4600F0B6FBCDE9E0
:102BF0000201304600F092FCCDE90001DDE902233C
:102C000000F0A5FBCDE9040100F099FC8246504696
:102C100006B0BDE8F0872DE9F04F85B083468A46BF
:102C200014461D46504600F079FC804622462B464D
:102C300000F093FBCDE90201584600F06FFCCDE9AE
:102C40000001DDE9022300F082FB064600F077FC7C
:102C50000490049805B0BDE8F08F0146474800781D
:102C6000FF2802D10020454A1070032905D14348AE
:102C7000007840F0F000414A1070042905D13F4827
:102C8000007840F00F003D4A10703C4800787047D3
:102C900065291CD008DC45290DD04E2914D05329B4
:102CA0000FD057291FD109E06E2919D0732914D0EC
:102CB000772918D10EE00022027015E00022027080
:102CC00012E0002242700FE0002242700CE001226C
:102CD000027009E0FF22027006E0FF22427003E06A
:102CE0000122427000E000BF00BF70472DE9FC47A1
:102CF00005460E4600200090019000248146287869
:102D0000542833D16878702830D105E0A01C285CA5
:102D10000DF80400601CC4B2A01C285C2028F5D16A
:102D2000684600F0B4FF074600F028FC3080002021
:102D300000900190601CC4B209E0A01C285C0DF852
:102D40000900601CC4B209F1010000F0FF09A01CD9
:102D5000285C0028F1D1684600F099FF074600F092
:102D60000DFC70801421284600F045FABDE8FC8770
:102D700040E3090080C6130080C6334134000020C0
:102D800008B501210420FDF793FF4FF48070ADF8E2
:102D9000000018208DF8030003208DF8020069461A
:102DA0008348FDF7C9FC08BD08B501210420FDF7E3
:102DB0007FFF01210420FDF77BFF01210420FDF7A7
:102DC00077FF4FF40060ADF8000010208DF803008D
:102DD00003208DF8020069467548FDF7ADFC4FF4FD
:102DE0008050ADF8000069467148FDF7A5FC4FF42E
:102DF0000050ADF8000069466D48FDF79DFC4FF4AA
:102E00008040ADF8000069466948FDF795FC022056
:102E1000ADF8000069466648FDF78EFC4FF40040AF
:102E2000ADF8000069466248FDF786FC4FF400618A
:102E30005F48FDF72EFD4FF480515D48FDF72BFDF7
:102E40004FF400515A48FDF726FD4FF48041584891
:102E5000FDF721FD4FF400415548FDF71AFD022111
:102E60005348FDF718FD08BD08B54FF4C060FDF7E5
:102E70006BFA19208DF8000000208DF80100022067
:102E80008DF8020001208DF803006846FDF761FA15
:102E900008BD00B587B00121C802FDF709FF42F265
:102EA0000F70ADF8140041F61F40ADF8100000207F
:102EB000ADF81600ADF812008DF8180004A93D48D1
:102EC000FEF72EF87020ADF800000120ADF80200EA
:102ED0000020ADF8040041F28730ADF80600022072
:102EE000ADF808000020ADF80C0069463148FEF747
:102EF00054F808212F48FEF79FFC01212D48FEF7CA
:102F00006BFC01212B48FEF7BFFD01212948FEF78C
:102F100029FE012211462748FEF779FB00212548AA
:102F2000FEF75AFB00212348FEF762FB07B000BD05
:102F300010B5FFF739FFFFF723FFFFF795FFFFF706
:102F4000A8FF10BD10B504466CB900211948FEF762
:102F500043FB00211748FEF74BFB4FF40061144878
:102F6000FDF797FC0CE001211248FEF735FB01212B
:102F70001048FEF73DFB4FF400610D48FDF78BFC58
:102F800010BD10B5044621460A48FEF7BBFD61108E
:102F90000848FEF7B9FD10BD70B5044642F2107046
:102FA00090FBF4F085B22846FFF7EBFF70BD000000
:102FB00000080140002C014008B501211820FDF750
:102FC00077FE01210820FDF773FE4FF40050ADF8A5
:102FD000000010208DF8030003208DF802006946E0
:102FE0007E48FDF7A9FB4FF48050ADF8000069461C
:102FF0007B48FDF7A1FB4FF40050ADF80000694697
:103000007748FDF799FB4FF48040ADF80000694622
:103010007348FDF791FB4FF40040ADF8000069469E
:103020006F48FDF789FB4FF400516C48FDF731FC08
:103030004FF480516A48FDF72EFC4FF40051684868
:10304000FDF729FC4FF480416548FDF724FC4FF45F
:1030500000416348FDF71DFC08BD08B501210420AF
:10306000FDF726FE0120ADF8000018208DF80300C2
:1030700003208DF8020069465A48FDF75DFB08BD44
:1030800008B54FF4A060FDF75FF91C208DF8000033
:1030900001208DF8010000208DF8020001208DF83C
:1030A00003006846FDF755F908BD00B587B001215A
:1030B0000846FDF70AFE42F20F70ADF8140041F623
:1030C0001F40ADF810000020ADF81600ADF812005A
:1030D00004A94FF08040FDF723FF7020ADF80000F9
:1030E0000120ADF8020041F28730ADF80600022061
:1030F000ADF808000020ADF80C0069464FF08040A4
:10310000FDF74BFF0821C806FEF796FB0121880753
:10311000FEF762FB01218807FEF7B6FC0121880754
:10312000FEF720FD012211469007FEF770FA0021FC
:103130004FF08040FEF750FA00214FF08040FEF73C
:1031400057FA07B000BD10B5FFF736FFFFF785FF50
:10315000FFF7ABFFFFF794FF10BD10B504467CB935
:1031600000214FF08040FEF737FA00214FF08040F9
:10317000FEF73EFA4FF400511848FDF78AFB0CE0C9
:1031800001218807FEF728FA01218807FEF730FAA7
:103190004FF400511148FDF77EFB10BD10B50446F9
:1031A00021464FF08040FEF7AFFC10BD10B504463D
:1031B00021464FF08040FEF7A5FC61104FF08040A3
:1031C000FEF7A2FC10BD70B5044642F2107090FBF1
:1031D000F4F085B22846FFF7E9FF70BD001001400A
:1031E000000C014000080140D2B201E000F8012BC0
:1031F000491EFBD270470022F6E710B513460A4677
:1032000004461946FFF7F0FF204610BD2DE9FE4F9A
:10321000804681EA0300C00F0C46009021F0004177
:1032200023F00045B8EB0200A94105D240462146F3
:1032300090461C460B46024623F00040104347D000
:10324000270DC7F30A00C3F30A510290401A0190F8
:1032500040286BDAC3F3130040F4801B00989246B9
:1032600020B10023D2EB030A63EB0B0B0198594604
:10327000C0F14002504600F0C3F906460D465046E4
:103280005946019A00F0DBF910EB08006141002477
:1032900087EA115284EAE7731A4340D0009A62B376
:1032A000019A012A4FEA075215DC001B61EB02016B
:1032B0004FF0004202EA0752CDE90042001C41F5FE
:1032C000801132462B4600F028FA03B0BDE8F08F9B
:1032D00040462146F9E7001B61EB0201001C41F565
:1032E000801300185B412018A2F5001747EB03017B
:1032F00040EAD570B6196D4111E06D084FEA360607
:1033000045EAC0754FEA0752001B61EB0201001C41
:1033100041F5801149084FEA300000195141324609
:103320002B4603B0BDE8F04F00F0EAB90098012247
:1033300040000023D0EB020263EBE07300982146CB
:103340004FEAE074B8EB000061EB0401E9E783F0B9
:1033500000435BE781F0004158E72DE9FE4F81EA29
:10336000030404F0004421F0004100944FF0000BEE
:1033700023F0004350EA01045ED052EA03045BD01C
:10338000C3F30A54C1F30A552C44A4F2F334019454
:10339000A0FB0254C1F3130141F48011C3F31303E2
:1033A00043F4801301FB024400FB034E840A970A96
:1033B00044EA815447EA8357A4FB076802958D0AC3
:1033C00005FB07854FEA932C04FB0C542705029D4F
:1033D0004FEA065847EA1637B5EB08056EEB070CBF
:1033E000870E920E47EA811742EA8312A7FB020179
:1033F000B6EB0B0164EB00042B0D43EA0C335E18B3
:1034000044EB1C50DA465146E7FB0201C5F31304B6
:103410004FEA0B3343EA14534FEA0432019C43EA68
:103420000603A4F10C040294009CCDE900B400F062
:1034300074F903B0BDE8F08F00200146F9E72DE9EB
:10344000F04D81EA030404F0004B21F000451446DE
:103450004FF0000A23F0004150EA050220D054EA60
:1034600001021DD0C5F30A570246C5F31303C1F389
:103470001300C1F30A5640F4801543F48013A7EB00
:103480000608101BD64608F2FD3873EB050002D380
:1034900008F1010801E092185B41B8F1000F03DA6E
:1034A00000200146BDE8F08D00204FF48011064653
:1034B00084460EE0171B73EB050705D3121B63EB65
:1034C000050306434CEA010C49084FEA3000921804
:1034D0005B4150EA0107EDD152EA030012D082EAC3
:1034E000040083EA0501084305D0101BAB4106D256
:1034F0000122002306E000224FF0004302E06FF0BB
:10350000010253101AEB06004CEB085110EB0A00B5
:1035100041EB0B01BDE8F04D00F0F2B80EB5C10F64
:1035200080EAE0700844CA07002140F233438DE886
:103530000E000A460B4600F0F0F803B000BD70B56F
:10354000C1F30A5201F000450024C1F3130140F217
:10355000FF3341F480119A4201DA002070BD40F23D
:1035600033439A42A2F2334203DC524200F057F84E
:1035700000E090402C43F1D0404270BDC1F30A52AC
:1035800010B5C1F3130140F2FF3341F480119A42A8
:1035900001DA002010BD40F233439A42A2F23342D6
:1035A00003DC524200F03BF810BD904010BD00001B
:1035B00030B5002904DB4FF00044404264EB0101C8
:1035C000002B04DB4FF00044524264EB03038B42B8
:1035D00008BF824230BD000030B5002904DB4FF047
:1035E0000044404264EB0101002B04DB4FF0004437
:1035F000524264EB0303994208BF904230BD000081
:10360000202A04DB203A00FA02F1002070479140A2
:10361000C2F1200320FA03F3194390407047202A97
:1036200004DB203A21FA02F00021704721FA02F36C
:10363000D040C2F120029140084319467047202A29
:1036400006DBCB17203A41FA02F043EAE07306E0CA
:1036500041FA02F3D040C2F12002914008431946DA
:10366000704700000FB4002300B589B00CA9009189
:103670000B996FF00042CB601E4B06931E4B0793D5
:103680000423CDE901321D4A089202466B46002010
:1036900000F02AF909B05DF814FB70B586B0064653
:1036A0004FF0FF300091CDE90101002015460C4696
:1036B00004903246694604A8FFF7D4FF03460498F5
:1036C000211825B108B10A4600E022462A600028E8
:1036D0000DD0002B02DD0098884208D0081B009412
:1036E000CDE901043246694604A8FFF7BBFF06B0E6
:1036F00070BD0000213B00083F3B0008DD3700089B
:1037000010B5002B08DA401C41F1000192185B4112
:103710001A4301D120F0010010BD2DE9F04D924671
:103720009B4611B1B1FA81F202E0B0FA80F2203288
:103730009046FFF765FF04460F4640EA0A0041EA5B
:103740000B0153465A46084313D0114653EA010071
:1037500019D0C8F140025046FFF761FF05460E46FA
:10376000504659464246FFF74BFF084305D001201B
:1037700004E020463946BDE8F08D0020054346EAC6
:10378000E0762C4337430A986305E40AA0EB08006F
:103790000022FD0A44EA47540A3002D500200146BF
:1037A000E9E7010510196941DDE90845001969419A
:1037B000BDE8F04DA4E70000064C074D06E0E068C8
:1037C00040F0010394E8070098471034AC42F6D368
:1037D000FCF7B2FCF83C0008183D0008C0B24FF4FA
:1037E000F05100F0BDB900002DE9FF4F087881B01D
:1037F0009946FF2805D0491C2D2804D00024002319
:1038000008E000230BE00124F9E703EB830300EB5E
:103810004303491C0878FF28F7D104B15B4200201C
:103820000090147801462D2C01D02B2C04D1521C71
:103830002D2C12D00024009400251678FF2E0ED0D7
:103840000A24A0FB04C801FB0481002700FB071128
:10385000521C16EB0C006941EFE70124EBE7994499
:1038600050EA01020ED00024AA4D2646DFF8A882B5
:1038700000F08AF982468B46B9F1000009DAC9F1F5
:1038800000071BE001980021C0E9001105B0BDE868
:10389000F08F074612E0F80707D022462B46304645
:1038A0004146FFF75AFD0646884622462B461046FB
:1038B0001946FFF752FD04460D467F10002FEAD14E
:1038C000B9F1000F324643465046594602DAFFF737
:1038D000B6FD01E0FFF741FD009A0AB181F0004119
:1038E000019AC2E90001D1E72DE9FF4F1F468DB0D3
:1038F000D7E901464FF0FF382E2045464FF000092A
:103900000B90B9696D1C0E988847396A82468847C2
:103910000028F6D1BAF1FF3F0AD024F4D064002E7B
:1039200011DDBAF12B0F08D0BAF12D0F0BD102E047
:10393000404611B0ABE744F48064B9696D1C0E9841
:1039400088478246761E6946600501D52D2000E035
:103950002B208DF8000001F1010B0DF1200809E08A
:10396000B9696D1C0E98884782460F9844F400741C
:10397000761E0560002E02DDBAF1300FF0D00B99F3
:103980008A453ED144F0800406E00F99681CA9F1F5
:10399000010944F400740860B9696D1C761E0E9824
:1039A000884782463028F0D02BE00B998A4505D114
:1039B000200603D444F08004761E18E0504600F040
:1039C0005FF908B30DF11301761E44F400748B45C2
:1039D00008D2AAF130000BF8010B200607D5A9F197
:1039E000010003E0200602D409F101008146A00590
:1039F00002D50F99681C0860B9696D1C0E9888473C
:103A00008246002ED1DC53E0002E51DDBAF1650F65
:103A100002D0BAF1450F4BD1A00549D5B9696D1C4B
:103A200024F44074761E0E9888478246002E0CDDE2
:103A30002B2804D0BAF12D0F07D144F48074B96952
:103A40006D1C0E9888478246761EE00501D52D2113
:103A500000E02B2108F8011BCDF82C8021E00DF1AE
:103A60002901761E44F4007488450CD2AAF1300076
:103A700010F0FF0088F8000002D10B99884509D9A1
:103A800008F1010806E0E00501D5244801E042F212
:103A90000F708146B9696D1C0E98884782460F9851
:103AA0000560002E04DD504600F0EAF80028D6D16B
:103AB000F9690E988847FF208BF8000088F800000D
:103AC0000020069007904B466A4608A906A8FFF713
:103AD0008BFEA00502D46FF001002AE714F0240F3A
:103AE0000AD0E00714D1DDE906123868031D3B60F7
:103AF0000068C0E900120BE0DDE9060100F050F8B3
:103B00000146E00704D13868021D3A600068016090
:103B100028460EE7000024400000F03FF1D8FFFFE8
:103B2000426842B1016811F8013B23B1521EC0E95D
:103B30000012184670470121C160881E7047426814
:103B40005AB1C368016843B983688B4205D0491EE6
:103B5000521CC0E90012002070474FF0FF30704740
:103B60007F2801D9002208E0064A02EB5002C00774
:103B7000127800D1120902F00F0201209040084093
:103B800070470000B83C00080EB540F23342029284
:103B90000022CDE900221346FFF7BFFD03B000BDB0
:103BA00001F0004330B421F0004150EA010206D098
:103BB0000A0DA2F56072C1F31301002A02DC30BCC9
:103BC00000207047440F44EAC104C100E01830BC33
:103BD00000EBC250AFF300800029A8BF7047401C23
:103BE000490008BF20F00100704710B4B0FA80FC13
:103BF00000FA0CF050EA010404BF10BC704749B150
:103C0000CCF1200421FA04F411FA0CF118BF0121BF
:103C100021430843A3EB0C01CB1D4FEA00614FEA9F
:103C2000102042BF002010BC704700EBC35010446E
:103C30000029A4BF10BC7047401C490008BF20F0F9
:103C4000010010BC70470000014800687047000088
:103C50003800002002E008C8121F08C1002AFAD16B
:103C600070477047002001E001C1121F002AFBD1FC
:103C700070470000014908607047000038000020CC
:103C800030380A2801D2012070470020704730B533
:103C900083B004460020CDE90000FFF7D5FF0546BC
:103CA000002221466846FFF7F8FC2846FFF7E2FFAE
:103CB000DDE9000103B030BDDDDDDDDDDCBBBBDDFA
:103CC000DDDDDDDDDDDDDDDD9888888888888888BC
:103CD00077777777778888888555555666666666DC
:103CE00066666666666888888333333222222222BB
:103CF000222222222228888D183D00080000002060
:103D00003C000000543C0008543D00083C000020EA
:103D10006C040000643C000800A24A04000000009B
:103D2000000000000102030406070809000000006B
:103D3000010203040102030406070809020406083D
:103D40000000000000000000000000000000000073
:043D5000000000006F
:0400000508000131BD
:00000001FF
